{
  "_format": "hh-sol-artifact-1",
  "contractName": "CharacterNFT",
  "sourceName": "contracts/CharacterNFT.sol",
  "abi": [
    {
      "inputs": [
        {
          "internalType": "string",
          "name": "baseCID_",
          "type": "string"
        }
      ],
      "stateMutability": "nonpayable",
      "type": "constructor"
    },
    {
      "inputs": [
        {
          "internalType": "address",
          "name": "sender",
          "type": "address"
        },
        {
          "internalType": "uint256",
          "name": "tokenId",
          "type": "uint256"
        },
        {
          "internalType": "address",
          "name": "owner",
          "type": "address"
        }
      ],
      "name": "ERC721IncorrectOwner",
      "type": "error"
    },
    {
      "inputs": [
        {
          "internalType": "address",
          "name": "operator",
          "type": "address"
        },
        {
          "internalType": "uint256",
          "name": "tokenId",
          "type": "uint256"
        }
      ],
      "name": "ERC721InsufficientApproval",
      "type": "error"
    },
    {
      "inputs": [
        {
          "internalType": "address",
          "name": "approver",
          "type": "address"
        }
      ],
      "name": "ERC721InvalidApprover",
      "type": "error"
    },
    {
      "inputs": [
        {
          "internalType": "address",
          "name": "operator",
          "type": "address"
        }
      ],
      "name": "ERC721InvalidOperator",
      "type": "error"
    },
    {
      "inputs": [
        {
          "internalType": "address",
          "name": "owner",
          "type": "address"
        }
      ],
      "name": "ERC721InvalidOwner",
      "type": "error"
    },
    {
      "inputs": [
        {
          "internalType": "address",
          "name": "receiver",
          "type": "address"
        }
      ],
      "name": "ERC721InvalidReceiver",
      "type": "error"
    },
    {
      "inputs": [
        {
          "internalType": "address",
          "name": "sender",
          "type": "address"
        }
      ],
      "name": "ERC721InvalidSender",
      "type": "error"
    },
    {
      "inputs": [
        {
          "internalType": "uint256",
          "name": "tokenId",
          "type": "uint256"
        }
      ],
      "name": "ERC721NonexistentToken",
      "type": "error"
    },
    {
      "inputs": [
        {
          "internalType": "address",
          "name": "owner",
          "type": "address"
        }
      ],
      "name": "OwnableInvalidOwner",
      "type": "error"
    },
    {
      "inputs": [
        {
          "internalType": "address",
          "name": "account",
          "type": "address"
        }
      ],
      "name": "OwnableUnauthorizedAccount",
      "type": "error"
    },
    {
      "anonymous": false,
      "inputs": [
        {
          "indexed": true,
          "internalType": "address",
          "name": "owner",
          "type": "address"
        },
        {
          "indexed": true,
          "internalType": "address",
          "name": "approved",
          "type": "address"
        },
        {
          "indexed": true,
          "internalType": "uint256",
          "name": "tokenId",
          "type": "uint256"
        }
      ],
      "name": "Approval",
      "type": "event"
    },
    {
      "anonymous": false,
      "inputs": [
        {
          "indexed": true,
          "internalType": "address",
          "name": "owner",
          "type": "address"
        },
        {
          "indexed": true,
          "internalType": "address",
          "name": "operator",
          "type": "address"
        },
        {
          "indexed": false,
          "internalType": "bool",
          "name": "approved",
          "type": "bool"
        }
      ],
      "name": "ApprovalForAll",
      "type": "event"
    },
    {
      "anonymous": false,
      "inputs": [
        {
          "indexed": true,
          "internalType": "address",
          "name": "previousOwner",
          "type": "address"
        },
        {
          "indexed": true,
          "internalType": "address",
          "name": "newOwner",
          "type": "address"
        }
      ],
      "name": "OwnershipTransferred",
      "type": "event"
    },
    {
      "anonymous": false,
      "inputs": [
        {
          "indexed": true,
          "internalType": "address",
          "name": "from",
          "type": "address"
        },
        {
          "indexed": true,
          "internalType": "address",
          "name": "to",
          "type": "address"
        },
        {
          "indexed": true,
          "internalType": "uint256",
          "name": "tokenId",
          "type": "uint256"
        }
      ],
      "name": "Transfer",
      "type": "event"
    },
    {
      "inputs": [
        {
          "internalType": "address",
          "name": "to",
          "type": "address"
        },
        {
          "internalType": "uint256",
          "name": "tokenId",
          "type": "uint256"
        }
      ],
      "name": "approve",
      "outputs": [],
      "stateMutability": "nonpayable",
      "type": "function"
    },
    {
      "inputs": [
        {
          "internalType": "uint256",
          "name": "",
          "type": "uint256"
        }
      ],
      "name": "attack",
      "outputs": [
        {
          "internalType": "uint256",
          "name": "",
          "type": "uint256"
        }
      ],
      "stateMutability": "view",
      "type": "function"
    },
    {
      "inputs": [
        {
          "internalType": "address",
          "name": "owner",
          "type": "address"
        }
      ],
      "name": "balanceOf",
      "outputs": [
        {
          "internalType": "uint256",
          "name": "",
          "type": "uint256"
        }
      ],
      "stateMutability": "view",
      "type": "function"
    },
    {
      "inputs": [
        {
          "internalType": "uint256",
          "name": "tokenId",
          "type": "uint256"
        }
      ],
      "name": "getApproved",
      "outputs": [
        {
          "internalType": "address",
          "name": "",
          "type": "address"
        }
      ],
      "stateMutability": "view",
      "type": "function"
    },
    {
      "inputs": [
        {
          "internalType": "uint256",
          "name": "tokenId",
          "type": "uint256"
        }
      ],
      "name": "getCharacterStats",
      "outputs": [
        {
          "internalType": "uint256",
          "name": "attackStat",
          "type": "uint256"
        },
        {
          "internalType": "uint256",
          "name": "hpStat",
          "type": "uint256"
        }
      ],
      "stateMutability": "view",
      "type": "function"
    },
    {
      "inputs": [
        {
          "internalType": "uint256",
          "name": "",
          "type": "uint256"
        }
      ],
      "name": "hp",
      "outputs": [
        {
          "internalType": "uint256",
          "name": "",
          "type": "uint256"
        }
      ],
      "stateMutability": "view",
      "type": "function"
    },
    {
      "inputs": [
        {
          "internalType": "address",
          "name": "owner",
          "type": "address"
        },
        {
          "internalType": "address",
          "name": "operator",
          "type": "address"
        }
      ],
      "name": "isApprovedForAll",
      "outputs": [
        {
          "internalType": "bool",
          "name": "",
          "type": "bool"
        }
      ],
      "stateMutability": "view",
      "type": "function"
    },
    {
      "inputs": [
        {
          "internalType": "address",
          "name": "to",
          "type": "address"
        }
      ],
      "name": "mint",
      "outputs": [
        {
          "internalType": "uint256",
          "name": "",
          "type": "uint256"
        }
      ],
      "stateMutability": "nonpayable",
      "type": "function"
    },
    {
      "inputs": [],
      "name": "name",
      "outputs": [
        {
          "internalType": "string",
          "name": "",
          "type": "string"
        }
      ],
      "stateMutability": "view",
      "type": "function"
    },
    {
      "inputs": [],
      "name": "owner",
      "outputs": [
        {
          "internalType": "address",
          "name": "",
          "type": "address"
        }
      ],
      "stateMutability": "view",
      "type": "function"
    },
    {
      "inputs": [
        {
          "internalType": "uint256",
          "name": "tokenId",
          "type": "uint256"
        }
      ],
      "name": "ownerOf",
      "outputs": [
        {
          "internalType": "address",
          "name": "",
          "type": "address"
        }
      ],
      "stateMutability": "view",
      "type": "function"
    },
    {
      "inputs": [],
      "name": "renounceOwnership",
      "outputs": [],
      "stateMutability": "nonpayable",
      "type": "function"
    },
    {
      "inputs": [
        {
          "internalType": "address",
          "name": "from",
          "type": "address"
        },
        {
          "internalType": "address",
          "name": "to",
          "type": "address"
        },
        {
          "internalType": "uint256",
          "name": "tokenId",
          "type": "uint256"
        }
      ],
      "name": "safeTransferFrom",
      "outputs": [],
      "stateMutability": "nonpayable",
      "type": "function"
    },
    {
      "inputs": [
        {
          "internalType": "address",
          "name": "from",
          "type": "address"
        },
        {
          "internalType": "address",
          "name": "to",
          "type": "address"
        },
        {
          "internalType": "uint256",
          "name": "tokenId",
          "type": "uint256"
        },
        {
          "internalType": "bytes",
          "name": "data",
          "type": "bytes"
        }
      ],
      "name": "safeTransferFrom",
      "outputs": [],
      "stateMutability": "nonpayable",
      "type": "function"
    },
    {
      "inputs": [
        {
          "internalType": "address",
          "name": "operator",
          "type": "address"
        },
        {
          "internalType": "bool",
          "name": "approved",
          "type": "bool"
        }
      ],
      "name": "setApprovalForAll",
      "outputs": [],
      "stateMutability": "nonpayable",
      "type": "function"
    },
    {
      "inputs": [
        {
          "internalType": "bytes4",
          "name": "interfaceId",
          "type": "bytes4"
        }
      ],
      "name": "supportsInterface",
      "outputs": [
        {
          "internalType": "bool",
          "name": "",
          "type": "bool"
        }
      ],
      "stateMutability": "view",
      "type": "function"
    },
    {
      "inputs": [],
      "name": "symbol",
      "outputs": [
        {
          "internalType": "string",
          "name": "",
          "type": "string"
        }
      ],
      "stateMutability": "view",
      "type": "function"
    },
    {
      "inputs": [
        {
          "internalType": "uint256",
          "name": "tokenId",
          "type": "uint256"
        }
      ],
      "name": "tokenURI",
      "outputs": [
        {
          "internalType": "string",
          "name": "",
          "type": "string"
        }
      ],
      "stateMutability": "view",
      "type": "function"
    },
    {
      "inputs": [
        {
          "internalType": "address",
          "name": "owner",
          "type": "address"
        }
      ],
      "name": "tokensOfOwner",
      "outputs": [
        {
          "internalType": "uint256[]",
          "name": "",
          "type": "uint256[]"
        }
      ],
      "stateMutability": "view",
      "type": "function"
    },
    {
      "inputs": [
        {
          "internalType": "address",
          "name": "from",
          "type": "address"
        },
        {
          "internalType": "address",
          "name": "to",
          "type": "address"
        },
        {
          "internalType": "uint256",
          "name": "tokenId",
          "type": "uint256"
        }
      ],
      "name": "transferFrom",
      "outputs": [],
      "stateMutability": "nonpayable",
      "type": "function"
    },
    {
      "inputs": [
        {
          "internalType": "address",
          "name": "newOwner",
          "type": "address"
        }
      ],
      "name": "transferOwnership",
      "outputs": [],
      "stateMutability": "nonpayable",
      "type": "function"
    }
  ],
  "bytecode": "0x608060405234801561001057600080fd5b50604051612f1e380380612f1e83398181016040528101906100329190610394565b336040518060400160405280600d81526020017f47616d65436861726163746572000000000000000000000000000000000000008152506040518060400160405280600581526020017f474348415200000000000000000000000000000000000000000000000000000081525081600090816100ae91906105fe565b5080600190816100be91906105fe565b505050600073ffffffffffffffffffffffffffffffffffffffff168173ffffffffffffffffffffffffffffffffffffffff16036101335760006040517f1e4fbdf700000000000000000000000000000000000000000000000000000000815260040161012a9190610711565b60405180910390fd5b6101428161015960201b60201c565b5080600a908161015291906105fe565b505061072c565b6000600660009054906101000a900473ffffffffffffffffffffffffffffffffffffffff16905081600660006101000a81548173ffffffffffffffffffffffffffffffffffffffff021916908373ffffffffffffffffffffffffffffffffffffffff1602179055508173ffffffffffffffffffffffffffffffffffffffff168173ffffffffffffffffffffffffffffffffffffffff167f8be0079c531659141344cd1fd0a4f28419497f9722a3daafe3b4186f6b6457e060405160405180910390a35050565b6000604051905090565b600080fd5b600080fd5b600080fd5b600080fd5b6000601f19601f8301169050919050565b7f4e487b7100000000000000000000000000000000000000000000000000000000600052604160045260246000fd5b6102868261023d565b810181811067ffffffffffffffff821117156102a5576102a461024e565b5b80604052505050565b60006102b861021f565b90506102c4828261027d565b919050565b600067ffffffffffffffff8211156102e4576102e361024e565b5b6102ed8261023d565b9050602081019050919050565b60005b838110156103185780820151818401526020810190506102fd565b60008484015250505050565b6000610337610332846102c9565b6102ae565b90508281526020810184848401111561035357610352610238565b5b61035e8482856102fa565b509392505050565b600082601f83011261037b5761037a610233565b5b815161038b848260208601610324565b91505092915050565b6000602082840312156103aa576103a9610229565b5b600082015167ffffffffffffffff8111156103c8576103c761022e565b5b6103d484828501610366565b91505092915050565b600081519050919050565b7f4e487b7100000000000000000000000000000000000000000000000000000000600052602260045260246000fd5b6000600282049050600182168061042f57607f821691505b602082108103610442576104416103e8565b5b50919050565b60008190508160005260206000209050919050565b60006020601f8301049050919050565b600082821b905092915050565b6000600883026104aa7fffffffffffffffffffffffffffffffffffffffffffffffffffffffffffffffff8261046d565b6104b4868361046d565b95508019841693508086168417925050509392505050565b6000819050919050565b6000819050919050565b60006104fb6104f66104f1846104cc565b6104d6565b6104cc565b9050919050565b6000819050919050565b610515836104e0565b61052961052182610502565b84845461047a565b825550505050565b600090565b61053e610531565b61054981848461050c565b505050565b5b8181101561056d57610562600082610536565b60018101905061054f565b5050565b601f8211156105b25761058381610448565b61058c8461045d565b8101602085101561059b578190505b6105af6105a78561045d565b83018261054e565b50505b505050565b600082821c905092915050565b60006105d5600019846008026105b7565b1980831691505092915050565b60006105ee83836105c4565b9150826002028217905092915050565b610607826103dd565b67ffffffffffffffff8111156106205761061f61024e565b5b61062a8254610417565b610635828285610571565b600060209050601f8311600181146106685760008415610656578287015190505b61066085826105e2565b8655506106c8565b601f19841661067686610448565b60005b8281101561069e57848901518255600182019150602085019450602081019050610679565b868310156106bb57848901516106b7601f8916826105c4565b8355505b6001600288020188555050505b505050505050565b600073ffffffffffffffffffffffffffffffffffffffff82169050919050565b60006106fb826106d0565b9050919050565b61070b816106f0565b82525050565b60006020820190506107266000830184610702565b92915050565b6127e38061073b6000396000f3fe608060405234801561001057600080fd5b50600436106101375760003560e01c806370a08231116100b8578063a22cb4651161007c578063a22cb46514610375578063b88d4fde14610391578063c4893d51146103ad578063c87b56dd146103dd578063e985e9c51461040d578063f2fde38b1461043d57610137565b806370a08231146102cf578063715018a6146102ff5780638462151c146103095780638da5cb5b1461033957806395d89b411461035757610137565b806342842e0e116100ff57806342842e0e146101f25780636352211e1461020e57806364dd891a1461023e5780636a6278421461026e5780636fe0c0461461029e57610137565b806301ffc9a71461013c57806306fdde031461016c578063081812fc1461018a578063095ea7b3146101ba57806323b872dd146101d6575b600080fd5b61015660048036038101906101519190611b19565b610459565b6040516101639190611b61565b60405180910390f35b61017461053b565b6040516101819190611c0c565b60405180910390f35b6101a4600480360381019061019f9190611c64565b6105cd565b6040516101b19190611cd2565b60405180910390f35b6101d460048036038101906101cf9190611d19565b6105e9565b005b6101f060048036038101906101eb9190611d59565b6105ff565b005b61020c60048036038101906102079190611d59565b610701565b005b61022860048036038101906102239190611c64565b610721565b6040516102359190611cd2565b60405180910390f35b61025860048036038101906102539190611c64565b610733565b6040516102659190611dbb565b60405180910390f35b61028860048036038101906102839190611dd6565b61074b565b6040516102959190611dbb565b60405180910390f35b6102b860048036038101906102b39190611c64565b6107c3565b6040516102c6929190611e03565b60405180910390f35b6102e960048036038101906102e49190611dd6565b61086e565b6040516102f69190611dbb565b60405180910390f35b610307610928565b005b610323600480360381019061031e9190611dd6565b61093c565b6040516103309190611eea565b60405180910390f35b610341610a29565b60405161034e9190611cd2565b60405180910390f35b61035f610a53565b60405161036c9190611c0c565b60405180910390f35b61038f600480360381019061038a9190611f38565b610ae5565b005b6103ab60048036038101906103a691906120ad565b610afb565b005b6103c760048036038101906103c29190611c64565b610b20565b6040516103d49190611dbb565b60405180910390f35b6103f760048036038101906103f29190611c64565b610b38565b6040516104049190611c0c565b60405180910390f35b61042760048036038101906104229190612130565b610be3565b6040516104349190611b61565b60405180910390f35b61045760048036038101906104529190611dd6565b610c77565b005b60007f80ac58cd000000000000000000000000000000000000000000000000000000007bffffffffffffffffffffffffffffffffffffffffffffffffffffffff1916827bffffffffffffffffffffffffffffffffffffffffffffffffffffffff1916148061052457507f5b5e139f000000000000000000000000000000000000000000000000000000007bffffffffffffffffffffffffffffffffffffffffffffffffffffffff1916827bffffffffffffffffffffffffffffffffffffffffffffffffffffffff1916145b80610534575061053382610cfd565b5b9050919050565b60606000805461054a9061219f565b80601f01602080910402602001604051908101604052809291908181526020018280546105769061219f565b80156105c35780601f10610598576101008083540402835291602001916105c3565b820191906000526020600020905b8154815290600101906020018083116105a657829003601f168201915b5050505050905090565b60006105d882610d67565b506105e282610def565b9050919050565b6105fb82826105f6610e2c565b610e34565b5050565b600073ffffffffffffffffffffffffffffffffffffffff168273ffffffffffffffffffffffffffffffffffffffff16036106715760006040517f64a0ae920000000000000000000000000000000000000000000000000000000081526004016106689190611cd2565b60405180910390fd5b60006106858383610680610e2c565b610e46565b90508373ffffffffffffffffffffffffffffffffffffffff168173ffffffffffffffffffffffffffffffffffffffff16146106fb578382826040517f64283d7b0000000000000000000000000000000000000000000000000000000081526004016106f2939291906121d0565b60405180910390fd5b50505050565b61071c83838360405180602001604052806000815250610afb565b505050565b600061072c82610d67565b9050919050565b60086020528060005260406000206000915090505481565b6000806007600081548092919061076190612236565b9190505590506107718382611060565b60148161077e91906122ad565b600a61078a91906122de565b60086000838152602001908152602001600020819055506064600960008381526020019081526020016000208190555080915050919050565b600080600073ffffffffffffffffffffffffffffffffffffffff166107e784611159565b73ffffffffffffffffffffffffffffffffffffffff160361083d576040517f08c379a00000000000000000000000000000000000000000000000000000000081526004016108349061235e565b60405180910390fd5b6008600084815260200190815260200160002054600960008581526020019081526020016000205491509150915091565b60008073ffffffffffffffffffffffffffffffffffffffff168273ffffffffffffffffffffffffffffffffffffffff16036108e15760006040517f89c62b640000000000000000000000000000000000000000000000000000000081526004016108d89190611cd2565b60405180910390fd5b600360008373ffffffffffffffffffffffffffffffffffffffff1673ffffffffffffffffffffffffffffffffffffffff168152602001908152602001600020549050919050565b610930611196565b61093a600061121d565b565b606060006109498361086e565b905060008167ffffffffffffffff81111561096757610966611f82565b5b6040519080825280602002602001820160405280156109955781602001602082028036833780820191505090505b5090506000805b600754811015610a1d578573ffffffffffffffffffffffffffffffffffffffff166109c682611159565b73ffffffffffffffffffffffffffffffffffffffff1603610a1057808383815181106109f5576109f461237e565b5b6020026020010181815250508180610a0c90612236565b9250505b808060010191505061099c565b50819350505050919050565b6000600660009054906101000a900473ffffffffffffffffffffffffffffffffffffffff16905090565b606060018054610a629061219f565b80601f0160208091040260200160405190810160405280929190818152602001828054610a8e9061219f565b8015610adb5780601f10610ab057610100808354040283529160200191610adb565b820191906000526020600020905b815481529060010190602001808311610abe57829003601f168201915b5050505050905090565b610af7610af0610e2c565b83836112e3565b5050565b610b068484846105ff565b610b1a610b11610e2c565b85858585611452565b50505050565b60096020528060005260406000206000915090505481565b6060600073ffffffffffffffffffffffffffffffffffffffff16610b5b83611159565b73ffffffffffffffffffffffffffffffffffffffff1603610bb1576040517f08c379a0000000000000000000000000000000000000000000000000000000008152600401610ba89061241f565b60405180910390fd5b600a610bbc83611603565b604051602001610bcd9291906125f7565b6040516020818303038152906040529050919050565b6000600560008473ffffffffffffffffffffffffffffffffffffffff1673ffffffffffffffffffffffffffffffffffffffff16815260200190815260200160002060008373ffffffffffffffffffffffffffffffffffffffff1673ffffffffffffffffffffffffffffffffffffffff16815260200190815260200160002060009054906101000a900460ff16905092915050565b610c7f611196565b600073ffffffffffffffffffffffffffffffffffffffff168173ffffffffffffffffffffffffffffffffffffffff1603610cf15760006040517f1e4fbdf7000000000000000000000000000000000000000000000000000000008152600401610ce89190611cd2565b60405180910390fd5b610cfa8161121d565b50565b60007f01ffc9a7000000000000000000000000000000000000000000000000000000007bffffffffffffffffffffffffffffffffffffffffffffffffffffffff1916827bffffffffffffffffffffffffffffffffffffffffffffffffffffffff1916149050919050565b600080610d7383611159565b9050600073ffffffffffffffffffffffffffffffffffffffff168173ffffffffffffffffffffffffffffffffffffffff1603610de657826040517f7e273289000000000000000000000000000000000000000000000000000000008152600401610ddd9190611dbb565b60405180910390fd5b80915050919050565b60006004600083815260200190815260200160002060009054906101000a900473ffffffffffffffffffffffffffffffffffffffff169050919050565b600033905090565b610e418383836001611763565b505050565b600080610e5284611159565b9050600073ffffffffffffffffffffffffffffffffffffffff168373ffffffffffffffffffffffffffffffffffffffff1614610e9457610e93818486611928565b5b600073ffffffffffffffffffffffffffffffffffffffff168173ffffffffffffffffffffffffffffffffffffffff1614610f2557610ed6600085600080611763565b6001600360008373ffffffffffffffffffffffffffffffffffffffff1673ffffffffffffffffffffffffffffffffffffffff168152602001908152602001600020600082825403925050819055505b600073ffffffffffffffffffffffffffffffffffffffff168573ffffffffffffffffffffffffffffffffffffffff1614610fa8576001600360008773ffffffffffffffffffffffffffffffffffffffff1673ffffffffffffffffffffffffffffffffffffffff168152602001908152602001600020600082825401925050819055505b846002600086815260200190815260200160002060006101000a81548173ffffffffffffffffffffffffffffffffffffffff021916908373ffffffffffffffffffffffffffffffffffffffff160217905550838573ffffffffffffffffffffffffffffffffffffffff168273ffffffffffffffffffffffffffffffffffffffff167fddf252ad1be2c89b69c2b068fc378daa952ba7f163c4a11628f55a4df523b3ef60405160405180910390a4809150509392505050565b600073ffffffffffffffffffffffffffffffffffffffff168273ffffffffffffffffffffffffffffffffffffffff16036110d25760006040517f64a0ae920000000000000000000000000000000000000000000000000000000081526004016110c99190611cd2565b60405180910390fd5b60006110e083836000610e46565b9050600073ffffffffffffffffffffffffffffffffffffffff168173ffffffffffffffffffffffffffffffffffffffff16146111545760006040517f73c6ac6e00000000000000000000000000000000000000000000000000000000815260040161114b9190611cd2565b60405180910390fd5b505050565b60006002600083815260200190815260200160002060009054906101000a900473ffffffffffffffffffffffffffffffffffffffff169050919050565b61119e610e2c565b73ffffffffffffffffffffffffffffffffffffffff166111bc610a29565b73ffffffffffffffffffffffffffffffffffffffff161461121b576111df610e2c565b6040517f118cdaa70000000000000000000000000000000000000000000000000000000081526004016112129190611cd2565b60405180910390fd5b565b6000600660009054906101000a900473ffffffffffffffffffffffffffffffffffffffff16905081600660006101000a81548173ffffffffffffffffffffffffffffffffffffffff021916908373ffffffffffffffffffffffffffffffffffffffff1602179055508173ffffffffffffffffffffffffffffffffffffffff168173ffffffffffffffffffffffffffffffffffffffff167f8be0079c531659141344cd1fd0a4f28419497f9722a3daafe3b4186f6b6457e060405160405180910390a35050565b600073ffffffffffffffffffffffffffffffffffffffff168273ffffffffffffffffffffffffffffffffffffffff160361135457816040517f5b08ba1800000000000000000000000000000000000000000000000000000000815260040161134b9190611cd2565b60405180910390fd5b80600560008573ffffffffffffffffffffffffffffffffffffffff1673ffffffffffffffffffffffffffffffffffffffff16815260200190815260200160002060008473ffffffffffffffffffffffffffffffffffffffff1673ffffffffffffffffffffffffffffffffffffffff16815260200190815260200160002060006101000a81548160ff0219169083151502179055508173ffffffffffffffffffffffffffffffffffffffff168373ffffffffffffffffffffffffffffffffffffffff167f17307eab39ab6107e8899845ad3d59bd9653f200f220920489ca2b5937696c31836040516114459190611b61565b60405180910390a3505050565b60008373ffffffffffffffffffffffffffffffffffffffff163b11156115fc578273ffffffffffffffffffffffffffffffffffffffff1663150b7a02868685856040518563ffffffff1660e01b81526004016114b19493929190612691565b6020604051808303816000875af19250505080156114ed57506040513d601f19601f820116820180604052508101906114ea91906126f2565b60015b611571573d806000811461151d576040519150601f19603f3d011682016040523d82523d6000602084013e611522565b606091505b50600081510361156957836040517f64a0ae920000000000000000000000000000000000000000000000000000000081526004016115609190611cd2565b60405180910390fd5b805160208201fd5b63150b7a0260e01b7bffffffffffffffffffffffffffffffffffffffffffffffffffffffff1916817bffffffffffffffffffffffffffffffffffffffffffffffffffffffff1916146115fa57836040517f64a0ae920000000000000000000000000000000000000000000000000000000081526004016115f19190611cd2565b60405180910390fd5b505b5050505050565b60606000820361164a576040518060400160405280600181526020017f3000000000000000000000000000000000000000000000000000000000000000815250905061175e565b600082905060005b6000821461167c57808061166590612236565b915050600a82611675919061271f565b9150611652565b60008167ffffffffffffffff81111561169857611697611f82565b5b6040519080825280601f01601f1916602001820160405280156116ca5781602001600182028036833780820191505090505b5090505b60008514611757576001826116e39190612750565b9150600a856116f291906122ad565b60306116fe91906122de565b60f81b8183815181106117145761171361237e565b5b60200101907effffffffffffffffffffffffffffffffffffffffffffffffffffffffffffff1916908160001a905350600a85611750919061271f565b94506116ce565b8093505050505b919050565b808061179c5750600073ffffffffffffffffffffffffffffffffffffffff168273ffffffffffffffffffffffffffffffffffffffff1614155b156118d05760006117ac84610d67565b9050600073ffffffffffffffffffffffffffffffffffffffff168373ffffffffffffffffffffffffffffffffffffffff161415801561181757508273ffffffffffffffffffffffffffffffffffffffff168173ffffffffffffffffffffffffffffffffffffffff1614155b801561182a57506118288184610be3565b155b1561186c57826040517fa9fbf51f0000000000000000000000000000000000000000000000000000000081526004016118639190611cd2565b60405180910390fd5b81156118ce57838573ffffffffffffffffffffffffffffffffffffffff168273ffffffffffffffffffffffffffffffffffffffff167f8c5be1e5ebec7d5bd14f71427d1e84f3dd0314c0f7b2291e5b200ac8c7c3b92560405160405180910390a45b505b836004600085815260200190815260200160002060006101000a81548173ffffffffffffffffffffffffffffffffffffffff021916908373ffffffffffffffffffffffffffffffffffffffff16021790555050505050565b6119338383836119ec565b6119e757600073ffffffffffffffffffffffffffffffffffffffff168373ffffffffffffffffffffffffffffffffffffffff16036119a857806040517f7e27328900000000000000000000000000000000000000000000000000000000815260040161199f9190611dbb565b60405180910390fd5b81816040517f177e802f0000000000000000000000000000000000000000000000000000000081526004016119de929190612784565b60405180910390fd5b505050565b60008073ffffffffffffffffffffffffffffffffffffffff168373ffffffffffffffffffffffffffffffffffffffff1614158015611aa457508273ffffffffffffffffffffffffffffffffffffffff168473ffffffffffffffffffffffffffffffffffffffff161480611a655750611a648484610be3565b5b80611aa357508273ffffffffffffffffffffffffffffffffffffffff16611a8b83610def565b73ffffffffffffffffffffffffffffffffffffffff16145b5b90509392505050565b6000604051905090565b600080fd5b600080fd5b60007fffffffff0000000000000000000000000000000000000000000000000000000082169050919050565b611af681611ac1565b8114611b0157600080fd5b50565b600081359050611b1381611aed565b92915050565b600060208284031215611b2f57611b2e611ab7565b5b6000611b3d84828501611b04565b91505092915050565b60008115159050919050565b611b5b81611b46565b82525050565b6000602082019050611b766000830184611b52565b92915050565b600081519050919050565b600082825260208201905092915050565b60005b83811015611bb6578082015181840152602081019050611b9b565b60008484015250505050565b6000601f19601f8301169050919050565b6000611bde82611b7c565b611be88185611b87565b9350611bf8818560208601611b98565b611c0181611bc2565b840191505092915050565b60006020820190508181036000830152611c268184611bd3565b905092915050565b6000819050919050565b611c4181611c2e565b8114611c4c57600080fd5b50565b600081359050611c5e81611c38565b92915050565b600060208284031215611c7a57611c79611ab7565b5b6000611c8884828501611c4f565b91505092915050565b600073ffffffffffffffffffffffffffffffffffffffff82169050919050565b6000611cbc82611c91565b9050919050565b611ccc81611cb1565b82525050565b6000602082019050611ce76000830184611cc3565b92915050565b611cf681611cb1565b8114611d0157600080fd5b50565b600081359050611d1381611ced565b92915050565b60008060408385031215611d3057611d2f611ab7565b5b6000611d3e85828601611d04565b9250506020611d4f85828601611c4f565b9150509250929050565b600080600060608486031215611d7257611d71611ab7565b5b6000611d8086828701611d04565b9350506020611d9186828701611d04565b9250506040611da286828701611c4f565b9150509250925092565b611db581611c2e565b82525050565b6000602082019050611dd06000830184611dac565b92915050565b600060208284031215611dec57611deb611ab7565b5b6000611dfa84828501611d04565b91505092915050565b6000604082019050611e186000830185611dac565b611e256020830184611dac565b9392505050565b600081519050919050565b600082825260208201905092915050565b6000819050602082019050919050565b611e6181611c2e565b82525050565b6000611e738383611e58565b60208301905092915050565b6000602082019050919050565b6000611e9782611e2c565b611ea18185611e37565b9350611eac83611e48565b8060005b83811015611edd578151611ec48882611e67565b9750611ecf83611e7f565b925050600181019050611eb0565b5085935050505092915050565b60006020820190508181036000830152611f048184611e8c565b905092915050565b611f1581611b46565b8114611f2057600080fd5b50565b600081359050611f3281611f0c565b92915050565b60008060408385031215611f4f57611f4e611ab7565b5b6000611f5d85828601611d04565b9250506020611f6e85828601611f23565b9150509250929050565b600080fd5b600080fd5b7f4e487b7100000000000000000000000000000000000000000000000000000000600052604160045260246000fd5b611fba82611bc2565b810181811067ffffffffffffffff82111715611fd957611fd8611f82565b5b80604052505050565b6000611fec611aad565b9050611ff88282611fb1565b919050565b600067ffffffffffffffff82111561201857612017611f82565b5b61202182611bc2565b9050602081019050919050565b82818337600083830152505050565b600061205061204b84611ffd565b611fe2565b90508281526020810184848401111561206c5761206b611f7d565b5b61207784828561202e565b509392505050565b600082601f83011261209457612093611f78565b5b81356120a484826020860161203d565b91505092915050565b600080600080608085870312156120c7576120c6611ab7565b5b60006120d587828801611d04565b94505060206120e687828801611d04565b93505060406120f787828801611c4f565b925050606085013567ffffffffffffffff81111561211857612117611abc565b5b6121248782880161207f565b91505092959194509250565b6000806040838503121561214757612146611ab7565b5b600061215585828601611d04565b925050602061216685828601611d04565b9150509250929050565b7f4e487b7100000000000000000000000000000000000000000000000000000000600052602260045260246000fd5b600060028204905060018216806121b757607f821691505b6020821081036121ca576121c9612170565b5b50919050565b60006060820190506121e56000830186611cc3565b6121f26020830185611dac565b6121ff6040830184611cc3565b949350505050565b7f4e487b7100000000000000000000000000000000000000000000000000000000600052601160045260246000fd5b600061224182611c2e565b91507fffffffffffffffffffffffffffffffffffffffffffffffffffffffffffffffff820361227357612272612207565b5b600182019050919050565b7f4e487b7100000000000000000000000000000000000000000000000000000000600052601260045260246000fd5b60006122b882611c2e565b91506122c383611c2e565b9250826122d3576122d261227e565b5b828206905092915050565b60006122e982611c2e565b91506122f483611c2e565b925082820190508082111561230c5761230b612207565b5b92915050565b7f546f6b656e20646f6573206e6f74206578697374000000000000000000000000600082015250565b6000612348601483611b87565b915061235382612312565b602082019050919050565b600060208201905081810360008301526123778161233b565b9050919050565b7f4e487b7100000000000000000000000000000000000000000000000000000000600052603260045260246000fd5b7f4552433732314d657461646174613a2055524920717565727920666f72206e6f60008201527f6e6578697374656e7420746f6b656e0000000000000000000000000000000000602082015250565b6000612409602f83611b87565b9150612414826123ad565b604082019050919050565b60006020820190508181036000830152612438816123fc565b9050919050565b600081905092915050565b7f697066733a2f2f00000000000000000000000000000000000000000000000000600082015250565b600061248060078361243f565b915061248b8261244a565b600782019050919050565b60008190508160005260206000209050919050565b600081546124b88161219f565b6124c2818661243f565b945060018216600081146124dd57600181146124f257612525565b60ff1983168652811515820286019350612525565b6124fb85612496565b60005b8381101561251d578154818901526001820191506020810190506124fe565b838801955050505b50505092915050565b7f2f00000000000000000000000000000000000000000000000000000000000000600082015250565b600061256460018361243f565b915061256f8261252e565b600182019050919050565b600061258582611b7c565b61258f818561243f565b935061259f818560208601611b98565b80840191505092915050565b7f2e6a736f6e000000000000000000000000000000000000000000000000000000600082015250565b60006125e160058361243f565b91506125ec826125ab565b600582019050919050565b600061260282612473565b915061260e82856124ab565b915061261982612557565b9150612625828461257a565b9150612630826125d4565b91508190509392505050565b600081519050919050565b600082825260208201905092915050565b60006126638261263c565b61266d8185612647565b935061267d818560208601611b98565b61268681611bc2565b840191505092915050565b60006080820190506126a66000830187611cc3565b6126b36020830186611cc3565b6126c06040830185611dac565b81810360608301526126d28184612658565b905095945050505050565b6000815190506126ec81611aed565b92915050565b60006020828403121561270857612707611ab7565b5b6000612716848285016126dd565b91505092915050565b600061272a82611c2e565b915061273583611c2e565b9250826127455761274461227e565b5b828204905092915050565b600061275b82611c2e565b915061276683611c2e565b925082820390508181111561277e5761277d612207565b5b92915050565b60006040820190506127996000830185611cc3565b6127a66020830184611dac565b939250505056fea2646970667358221220e0f4e6f41cfb8cdab6222542d0db594d6fa8c7c5d6c1682d9e9b43d42111cbb464736f6c634300081c0033",
  "linkReferences": {},
  "deployedLinkReferences": {}
}