{
  "_format": "hh-sol-artifact-1",
  "contractName": "Marketplace",
  "sourceName": "contracts/Marketplace.sol",
  "abi": [
    {
      "inputs": [
        {
          "internalType": "address",
          "name": "_nftContract",
          "type": "address"
        }
      ],
      "stateMutability": "nonpayable",
      "type": "constructor"
    },
    {
      "inputs": [
        {
          "internalType": "address",
          "name": "owner",
          "type": "address"
        }
      ],
      "name": "OwnableInvalidOwner",
      "type": "error"
    },
    {
      "inputs": [
        {
          "internalType": "address",
          "name": "account",
          "type": "address"
        }
      ],
      "name": "OwnableUnauthorizedAccount",
      "type": "error"
    },
    {
      "inputs": [],
      "name": "ReentrancyGuardReentrantCall",
      "type": "error"
    },
    {
      "anonymous": false,
      "inputs": [
        {
          "indexed": true,
          "internalType": "uint256",
          "name": "tokenId",
          "type": "uint256"
        },
        {
          "indexed": true,
          "internalType": "address",
          "name": "seller",
          "type": "address"
        }
      ],
      "name": "ItemDelisted",
      "type": "event"
    },
    {
      "anonymous": false,
      "inputs": [
        {
          "indexed": true,
          "internalType": "uint256",
          "name": "tokenId",
          "type": "uint256"
        },
        {
          "indexed": true,
          "internalType": "address",
          "name": "seller",
          "type": "address"
        },
        {
          "indexed": false,
          "internalType": "uint256",
          "name": "price",
          "type": "uint256"
        }
      ],
      "name": "ItemListed",
      "type": "event"
    },
    {
      "anonymous": false,
      "inputs": [
        {
          "indexed": true,
          "internalType": "uint256",
          "name": "tokenId",
          "type": "uint256"
        },
        {
          "indexed": true,
          "internalType": "address",
          "name": "buyer",
          "type": "address"
        },
        {
          "indexed": true,
          "internalType": "address",
          "name": "seller",
          "type": "address"
        },
        {
          "indexed": false,
          "internalType": "uint256",
          "name": "price",
          "type": "uint256"
        }
      ],
      "name": "ItemSold",
      "type": "event"
    },
    {
      "anonymous": false,
      "inputs": [
        {
          "indexed": true,
          "internalType": "address",
          "name": "previousOwner",
          "type": "address"
        },
        {
          "indexed": true,
          "internalType": "address",
          "name": "newOwner",
          "type": "address"
        }
      ],
      "name": "OwnershipTransferred",
      "type": "event"
    },
    {
      "inputs": [
        {
          "internalType": "uint256",
          "name": "tokenId",
          "type": "uint256"
        }
      ],
      "name": "buyItem",
      "outputs": [],
      "stateMutability": "payable",
      "type": "function"
    },
    {
      "inputs": [
        {
          "internalType": "uint256",
          "name": "tokenId",
          "type": "uint256"
        }
      ],
      "name": "delist",
      "outputs": [],
      "stateMutability": "nonpayable",
      "type": "function"
    },
    {
      "inputs": [
        {
          "internalType": "uint256",
          "name": "tokenId",
          "type": "uint256"
        }
      ],
      "name": "getListing",
      "outputs": [
        {
          "internalType": "address",
          "name": "seller",
          "type": "address"
        },
        {
          "internalType": "uint256",
          "name": "price",
          "type": "uint256"
        },
        {
          "internalType": "bool",
          "name": "active",
          "type": "bool"
        }
      ],
      "stateMutability": "view",
      "type": "function"
    },
    {
      "inputs": [
        {
          "internalType": "uint256",
          "name": "tokenId",
          "type": "uint256"
        },
        {
          "internalType": "uint256",
          "name": "price",
          "type": "uint256"
        }
      ],
      "name": "listForSale",
      "outputs": [],
      "stateMutability": "nonpayable",
      "type": "function"
    },
    {
      "inputs": [
        {
          "internalType": "uint256",
          "name": "",
          "type": "uint256"
        }
      ],
      "name": "listings",
      "outputs": [
        {
          "internalType": "address",
          "name": "seller",
          "type": "address"
        },
        {
          "internalType": "uint256",
          "name": "price",
          "type": "uint256"
        },
        {
          "internalType": "bool",
          "name": "active",
          "type": "bool"
        }
      ],
      "stateMutability": "view",
      "type": "function"
    },
    {
      "inputs": [],
      "name": "nftContract",
      "outputs": [
        {
          "internalType": "contract IERC721",
          "name": "",
          "type": "address"
        }
      ],
      "stateMutability": "view",
      "type": "function"
    },
    {
      "inputs": [],
      "name": "owner",
      "outputs": [
        {
          "internalType": "address",
          "name": "",
          "type": "address"
        }
      ],
      "stateMutability": "view",
      "type": "function"
    },
    {
      "inputs": [],
      "name": "renounceOwnership",
      "outputs": [],
      "stateMutability": "nonpayable",
      "type": "function"
    },
    {
      "inputs": [
        {
          "internalType": "address",
          "name": "newOwner",
          "type": "address"
        }
      ],
      "name": "transferOwnership",
      "outputs": [],
      "stateMutability": "nonpayable",
      "type": "function"
    }
  ],
  "bytecode": "0x608060405234801561001057600080fd5b506040516119b03803806119b08339818101604052810190610032919061022a565b33600073ffffffffffffffffffffffffffffffffffffffff168173ffffffffffffffffffffffffffffffffffffffff16036100a55760006040517f1e4fbdf700000000000000000000000000000000000000000000000000000000815260040161009c9190610266565b60405180910390fd5b6100b48161010360201b60201c565b506001808190555080600260006101000a81548173ffffffffffffffffffffffffffffffffffffffff021916908373ffffffffffffffffffffffffffffffffffffffff16021790555050610281565b60008060009054906101000a900473ffffffffffffffffffffffffffffffffffffffff169050816000806101000a81548173ffffffffffffffffffffffffffffffffffffffff021916908373ffffffffffffffffffffffffffffffffffffffff1602179055508173ffffffffffffffffffffffffffffffffffffffff168173ffffffffffffffffffffffffffffffffffffffff167f8be0079c531659141344cd1fd0a4f28419497f9722a3daafe3b4186f6b6457e060405160405180910390a35050565b600080fd5b600073ffffffffffffffffffffffffffffffffffffffff82169050919050565b60006101f7826101cc565b9050919050565b610207816101ec565b811461021257600080fd5b50565b600081519050610224816101fe565b92915050565b6000602082840312156102405761023f6101c7565b5b600061024e84828501610215565b91505092915050565b610260816101ec565b82525050565b600060208201905061027b6000830184610257565b92915050565b611720806102906000396000f3fe6080604052600436106100865760003560e01c8063d56d229d11610059578063d56d229d14610135578063de74e57b14610160578063e7fb74c71461019f578063e80d7fec146101bb578063f2fde38b146101e457610086565b8063107a274a1461008b578063715018a6146100ca5780638da5cb5b146100e1578063964bc33f1461010c575b600080fd5b34801561009757600080fd5b506100b260048036038101906100ad9190610f51565b61020d565b6040516100c193929190610fe9565b60405180910390f35b3480156100d657600080fd5b506100df6102cb565b005b3480156100ed57600080fd5b506100f66102df565b6040516101039190611020565b60405180910390f35b34801561011857600080fd5b50610133600480360381019061012e9190610f51565b610308565b005b34801561014157600080fd5b5061014a610485565b604051610157919061109a565b60405180910390f35b34801561016c57600080fd5b5061018760048036038101906101829190610f51565b6104ab565b60405161019693929190610fe9565b60405180910390f35b6101b960048036038101906101b49190610f51565b610502565b005b3480156101c757600080fd5b506101e260048036038101906101dd91906110b5565b6108e6565b005b3480156101f057600080fd5b5061020b60048036038101906102069190611121565b610cee565b005b600080600080600360008681526020019081526020016000206040518060600160405290816000820160009054906101000a900473ffffffffffffffffffffffffffffffffffffffff1673ffffffffffffffffffffffffffffffffffffffff1673ffffffffffffffffffffffffffffffffffffffff168152602001600182015481526020016002820160009054906101000a900460ff1615151515815250509050806000015181602001518260400151935093509350509193909250565b6102d3610d74565b6102dd6000610dfb565b565b60008060009054906101000a900473ffffffffffffffffffffffffffffffffffffffff16905090565b3373ffffffffffffffffffffffffffffffffffffffff166003600083815260200190815260200160002060000160009054906101000a900473ffffffffffffffffffffffffffffffffffffffff1673ffffffffffffffffffffffffffffffffffffffff16146103ac576040517f08c379a00000000000000000000000000000000000000000000000000000000081526004016103a3906111ab565b60405180910390fd5b6003600082815260200190815260200160002060020160009054906101000a900460ff1661040f576040517f08c379a000000000000000000000000000000000000000000000000000000000815260040161040690611217565b60405180910390fd5b60006003600083815260200190815260200160002060020160006101000a81548160ff0219169083151502179055503373ffffffffffffffffffffffffffffffffffffffff16817fcd69f8512d5dbb6c8101e48b86eee5edf783a51bc5e597bc5c832971e40fc91360405160405180910390a350565b600260009054906101000a900473ffffffffffffffffffffffffffffffffffffffff1681565b60036020528060005260406000206000915090508060000160009054906101000a900473ffffffffffffffffffffffffffffffffffffffff16908060010154908060020160009054906101000a900460ff16905083565b61050a610ebf565b6000600360008381526020019081526020016000206040518060600160405290816000820160009054906101000a900473ffffffffffffffffffffffffffffffffffffffff1673ffffffffffffffffffffffffffffffffffffffff1673ffffffffffffffffffffffffffffffffffffffff168152602001600182015481526020016002820160009054906101000a900460ff161515151581525050905080604001516105eb576040517f08c379a00000000000000000000000000000000000000000000000000000000081526004016105e290611283565b60405180910390fd5b8060200151341015610632576040517f08c379a0000000000000000000000000000000000000000000000000000000008152600401610629906112ef565b60405180910390fd5b60008160000151905060008260200151905060006003600086815260200190815260200160002060020160006101000a81548160ff021916908315150217905550600260009054906101000a900473ffffffffffffffffffffffffffffffffffffffff1673ffffffffffffffffffffffffffffffffffffffff166323b872dd8333876040518463ffffffff1660e01b81526004016106d29392919061130f565b600060405180830381600087803b1580156106ec57600080fd5b505af1158015610700573d6000803e3d6000fd5b5050505060008273ffffffffffffffffffffffffffffffffffffffff168260405161072a90611377565b60006040518083038185875af1925050503d8060008114610767576040519150601f19603f3d011682016040523d82523d6000602084013e61076c565b606091505b50509050806107b0576040517f08c379a00000000000000000000000000000000000000000000000000000000081526004016107a7906113d8565b60405180910390fd5b813411156108715760003373ffffffffffffffffffffffffffffffffffffffff1683346107dd9190611427565b6040516107e990611377565b60006040518083038185875af1925050503d8060008114610826576040519150601f19603f3d011682016040523d82523d6000602084013e61082b565b606091505b505090508061086f576040517f08c379a0000000000000000000000000000000000000000000000000000000008152600401610866906114a7565b60405180910390fd5b505b8273ffffffffffffffffffffffffffffffffffffffff163373ffffffffffffffffffffffffffffffffffffffff16867f04ddd54c6b746e69ba87f862311f7670bd1d7276846778ac81cd38747b27a746856040516108cf91906114c7565b60405180910390a4505050506108e3610f05565b50565b3373ffffffffffffffffffffffffffffffffffffffff16600260009054906101000a900473ffffffffffffffffffffffffffffffffffffffff1673ffffffffffffffffffffffffffffffffffffffff16636352211e846040518263ffffffff1660e01b815260040161095891906114c7565b602060405180830381865afa158015610975573d6000803e3d6000fd5b505050506040513d601f19601f8201168201806040525081019061099991906114f7565b73ffffffffffffffffffffffffffffffffffffffff16146109ef576040517f08c379a00000000000000000000000000000000000000000000000000000000081526004016109e690611570565b60405180910390fd5b60008111610a32576040517f08c379a0000000000000000000000000000000000000000000000000000000008152600401610a29906115dc565b60405180910390fd5b3073ffffffffffffffffffffffffffffffffffffffff16600260009054906101000a900473ffffffffffffffffffffffffffffffffffffffff1673ffffffffffffffffffffffffffffffffffffffff1663081812fc846040518263ffffffff1660e01b8152600401610aa491906114c7565b602060405180830381865afa158015610ac1573d6000803e3d6000fd5b505050506040513d601f19601f82011682018060405250810190610ae591906114f7565b73ffffffffffffffffffffffffffffffffffffffff161480610ba15750600260009054906101000a900473ffffffffffffffffffffffffffffffffffffffff1673ffffffffffffffffffffffffffffffffffffffff1663e985e9c533306040518363ffffffff1660e01b8152600401610b5f9291906115fc565b602060405180830381865afa158015610b7c573d6000803e3d6000fd5b505050506040513d601f19601f82011682018060405250810190610ba09190611651565b5b610be0576040517f08c379a0000000000000000000000000000000000000000000000000000000008152600401610bd7906116ca565b60405180910390fd5b60405180606001604052803373ffffffffffffffffffffffffffffffffffffffff168152602001828152602001600115158152506003600084815260200190815260200160002060008201518160000160006101000a81548173ffffffffffffffffffffffffffffffffffffffff021916908373ffffffffffffffffffffffffffffffffffffffff1602179055506020820151816001015560408201518160020160006101000a81548160ff0219169083151502179055509050503373ffffffffffffffffffffffffffffffffffffffff16827fc93edc6ee14cd6c0c2842099adfa8953b237dbdad304ba28e96dce8a7f2a828c83604051610ce291906114c7565b60405180910390a35050565b610cf6610d74565b600073ffffffffffffffffffffffffffffffffffffffff168173ffffffffffffffffffffffffffffffffffffffff1603610d685760006040517f1e4fbdf7000000000000000000000000000000000000000000000000000000008152600401610d5f9190611020565b60405180910390fd5b610d7181610dfb565b50565b610d7c610f0e565b73ffffffffffffffffffffffffffffffffffffffff16610d9a6102df565b73ffffffffffffffffffffffffffffffffffffffff1614610df957610dbd610f0e565b6040517f118cdaa7000000000000000000000000000000000000000000000000000000008152600401610df09190611020565b60405180910390fd5b565b60008060009054906101000a900473ffffffffffffffffffffffffffffffffffffffff169050816000806101000a81548173ffffffffffffffffffffffffffffffffffffffff021916908373ffffffffffffffffffffffffffffffffffffffff1602179055508173ffffffffffffffffffffffffffffffffffffffff168173ffffffffffffffffffffffffffffffffffffffff167f8be0079c531659141344cd1fd0a4f28419497f9722a3daafe3b4186f6b6457e060405160405180910390a35050565b600260015403610efb576040517f3ee5aeb500000000000000000000000000000000000000000000000000000000815260040160405180910390fd5b6002600181905550565b60018081905550565b600033905090565b600080fd5b6000819050919050565b610f2e81610f1b565b8114610f3957600080fd5b50565b600081359050610f4b81610f25565b92915050565b600060208284031215610f6757610f66610f16565b5b6000610f7584828501610f3c565b91505092915050565b600073ffffffffffffffffffffffffffffffffffffffff82169050919050565b6000610fa982610f7e565b9050919050565b610fb981610f9e565b82525050565b610fc881610f1b565b82525050565b60008115159050919050565b610fe381610fce565b82525050565b6000606082019050610ffe6000830186610fb0565b61100b6020830185610fbf565b6110186040830184610fda565b949350505050565b60006020820190506110356000830184610fb0565b92915050565b6000819050919050565b600061106061105b61105684610f7e565b61103b565b610f7e565b9050919050565b600061107282611045565b9050919050565b600061108482611067565b9050919050565b61109481611079565b82525050565b60006020820190506110af600083018461108b565b92915050565b600080604083850312156110cc576110cb610f16565b5b60006110da85828601610f3c565b92505060206110eb85828601610f3c565b9150509250929050565b6110fe81610f9e565b811461110957600080fd5b50565b60008135905061111b816110f5565b92915050565b60006020828403121561113757611136610f16565b5b60006111458482850161110c565b91505092915050565b600082825260208201905092915050565b7f4e6f742073656c6c657200000000000000000000000000000000000000000000600082015250565b6000611195600a8361114e565b91506111a08261115f565b602082019050919050565b600060208201905081810360008301526111c481611188565b9050919050565b7f4974656d206e6f74206c69737465640000000000000000000000000000000000600082015250565b6000611201600f8361114e565b915061120c826111cb565b602082019050919050565b60006020820190508181036000830152611230816111f4565b9050919050565b7f4974656d206e6f7420666f722073616c65000000000000000000000000000000600082015250565b600061126d60118361114e565b915061127882611237565b602082019050919050565b6000602082019050818103600083015261129c81611260565b9050919050565b7f496e73756666696369656e74207061796d656e74000000000000000000000000600082015250565b60006112d960148361114e565b91506112e4826112a3565b602082019050919050565b60006020820190508181036000830152611308816112cc565b9050919050565b60006060820190506113246000830186610fb0565b6113316020830185610fb0565b61133e6040830184610fbf565b949350505050565b600081905092915050565b50565b6000611361600083611346565b915061136c82611351565b600082019050919050565b600061138282611354565b9150819050919050565b7f5061796d656e74207472616e73666572206661696c6564000000000000000000600082015250565b60006113c260178361114e565b91506113cd8261138c565b602082019050919050565b600060208201905081810360008301526113f1816113b5565b9050919050565b7f4e487b7100000000000000000000000000000000000000000000000000000000600052601160045260246000fd5b600061143282610f1b565b915061143d83610f1b565b9250828203905081811115611455576114546113f8565b5b92915050565b7f526566756e64206661696c656400000000000000000000000000000000000000600082015250565b6000611491600d8361114e565b915061149c8261145b565b602082019050919050565b600060208201905081810360008301526114c081611484565b9050919050565b60006020820190506114dc6000830184610fbf565b92915050565b6000815190506114f1816110f5565b92915050565b60006020828403121561150d5761150c610f16565b5b600061151b848285016114e2565b91505092915050565b7f4e6f7420746f6b656e206f776e65720000000000000000000000000000000000600082015250565b600061155a600f8361114e565b915061156582611524565b602082019050919050565b600060208201905081810360008301526115898161154d565b9050919050565b7f5072696365206d7573742062652067726561746572207468616e203000000000600082015250565b60006115c6601c8361114e565b91506115d182611590565b602082019050919050565b600060208201905081810360008301526115f5816115b9565b9050919050565b60006040820190506116116000830185610fb0565b61161e6020830184610fb0565b9392505050565b61162e81610fce565b811461163957600080fd5b50565b60008151905061164b81611625565b92915050565b60006020828403121561166757611666610f16565b5b60006116758482850161163c565b91505092915050565b7f4d61726b6574706c616365206e6f7420617070726f7665640000000000000000600082015250565b60006116b460188361114e565b91506116bf8261167e565b602082019050919050565b600060208201905081810360008301526116e3816116a7565b905091905056fea2646970667358221220b1cbcf14f2795a1993ab090463b8f027efab11e4b6f4cfdde3ac24ad4aecd3a964736f6c634300081c0033",
  "linkReferences": {},
  "deployedLinkReferences": {}
}